:100000000C945D000C9485000C9485000C94850084
:100010000C9485000C9485000C9485000C9485004C
:100020000C9485000C9485000C9485000C9485003C
:100030000C9485000C9485000C9485000C9485002C
:100040000C947B040C9485000C94EB040C94C50474
:100050000C9485000C9485000C9485000C9485000C
:100060000C9485000C9485000000000024002700FB
:100070002A0000000000250028002B0004040404CE
:100080000404040402020202020203030303030342
:10009000010204081020408001020408102001021F
:1000A00004081020000000080002010000030407FB
:1000B00000000000000000008D0611241FBECFEFDD
:1000C000D4E0DEBFCDBF11E0A0E0B1E0ECEDFFE099
:1000D00002C005900D92AA37B107D9F722E0AAE72E
:1000E000B1E001C01D92AC33B207E1F710E0CDE5FD
:1000F000D0E004C02197FE010E94BA06CC35D1079A
:10010000C9F70E941D050C94EC070C94000090E0C8
:10011000FC01EC55FF4F2491FC01E057FF4F349157
:10012000FC01E458FF4FE491EE23B9F0222339F0AB
:100130002330F1F098F4213009F1223019F1F0E088
:10014000EE0FFF1FEE58FF4FA591B4918FB7F894B3
:10015000EC9130953E233C938FBF08952730A9F052
:100160002830C9F0243059F7809180008F7D03C07A
:10017000809180008F7780938000E1CF84B58F7766
:1001800084BDDDCF84B58F7DFBCF8091B0008F77AC
:100190008093B000D4CF8091B0008F7DF9CFCF9302
:1001A000DF9390E0FC01E057FF4F249184589F4F6C
:1001B000FC0184918823D1F090E0880F991FFC0105
:1001C000E859FF4FA591B491FC01EE58FF4FC5913E
:1001D000D49161110EC09FB7F8948C91E22FE095F5
:1001E0008E238C932881E223E8839FBFDF91CF91F8
:1001F00008958FB7F894EC91E22BEC938FBFF6CF74
:100200003FB7F8948091970190919801A09199013E
:10021000B0919A0126B5A89B05C02F3F19F0019611
:10022000A11DB11D3FBFBA2FA92F982F8827BC0150
:10023000CD01620F711D811D911D43E0660F771F77
:10024000881F991F4A95D1F708958F929F92AF9278
:10025000BF92CF92DF92EF92FF920E9400014B017A
:100260005C018AE0C82ED12CE12CF12C0E94000107
:10027000681979098A099B09683E734081059105CF
:10028000A8F321E0C21AD108E108F10888EE880E2F
:1002900083E0981EA11CB11CC114D104E104F10437
:1002A00029F7FF90EF90DF90CF90BF90AF909F9095
:1002B0008F900895AF92BF92CF92DF92EF92FF920C
:1002C0000F931F93CF93DF936C017B018B01040F7E
:1002D000151FEB015E01AE18BF08C017D10759F01A
:1002E0006991D601ED91FC910190F081E02DC6015C
:1002F0000995892B79F7C501DF91CF911F910F9156
:10030000FF90EF90DF90CF90BF90AF900895FC01E9
:10031000538D448D252F30E0842F90E0821B930B6A
:10032000541710F0CF96089501970895FC01918D10
:10033000828D981761F0A28DAE0FBF2FB11D5D9613
:100340008C91928D9F5F9F73928F90E008958FEFB5
:100350009FEF0895FC01918D828D981731F0828D69
:10036000E80FF11D858D90E008958FEF9FEF0895C0
:10037000FC01918D228D892F90E0805C9F4F821B24
:1003800091098F73992708958BE991E00E94B80134
:1003900021E0892B09F420E0822F089580E090E08D
:1003A000892B29F00E94C40181110C94000008954A
:1003B000FC01A48DA80FB92FB11DA35ABF4F2C91DA
:1003C000848D90E001968F739927848FA689B789D1
:1003D0002C93A089B1898C91837080648C93938DC8
:1003E000848D981306C00288F389E02D80818F7D6B
:1003F00080830895EF92FF920F931F93CF93DF9323
:10040000EC0181E0888F9B8D8C8D98131AC0E88950
:10041000F989808185FF15C09FB7F894EE89FF891F
:100420006083E889F98980818370806480839FBFBD
:1004300081E090E0DF91CF911F910F91FF90EF90BD
:100440000895F62E0B8D10E00F5F1F4F0F731127CD
:10045000E02E8C8D8E110CC00FB607FCFACFE88908
:10046000F989808185FFF5CFCE010E94D801F1CFB7
:10047000EB8DEC0FFD2FF11DE35AFF4FF0829FB77C
:10048000F8940B8FEA89FB8980818062CFCFCF936C
:10049000DF93EC01888D8823B9F0AA89BB89E889AC
:1004A000F9898C9185FD03C0808186FD0DC00FB652
:1004B00007FCF7CF8C9185FFF2CF808185FFEDCFD0
:1004C000CE010E94D801E9CFDF91CF9108950F931B
:1004D0001F93DC0118968C911897882361F0489F30
:1004E000A0011124452F829F90011124232F809F6A
:1004F00080011124012F1E968C911E971996ED9163
:10050000FC911A971B969C911B9789131EC0CB01D7
:10051000880F991F680F791F6E0F7F1F1B96EC9134
:100520001B97E60FF72FF11D40831C96EC911C974B
:10053000E60FF72FF11D20831D968C91680F711D1A
:10054000FB0100831F910F910895660F771F660FBF
:10055000771F6E0F7F1FFB01E80FF11D1082DECFAA
:10056000CF92DF92EF92FF920F931F93CF93DF937F
:10057000CDB7DEB729970FB6F894DEBF0FBECDBF5B
:100580008C010E940001D8011F96CD90DD90ED9066
:10059000FC9052976C157D058E059F0528F4F80197
:1005A0006787708B818B928BD8011F96CD90DD90E1
:1005B000ED90FC9052976C197D098E099F096C3261
:1005C000714081059105E8F2F894F80184819581E4
:1005D0009A838983A185B2857D01FFEFEF1AFF0A17
:1005E0008C918F83D8018C9153960D90BC91A02D46
:1005F000882309F434C11C82AB32B10509F076C0FE
:100600009BB1F8018589982B98879BB180958923A8
:10061000898789858B838F8187FF02C088858B833B
:10062000588569854F813B812C8189819A81D701C9
:100630005BB9262F3BB900C046FD252F6BB900C022
:100640005BB9362F2BB900C045FD352F6BB900C003
:100650005BB9262F3BB900C044FD252F6BB900C004
:100660005BB9362F2BB900C043FD352F6BB900C0E5
:100670005BB9262F3BB900C042FD252F6BB900C0E6
:100680005BB9362F2BB900C041FD352F6BB900C0C7
:100690005BB9262F3BB900C040FD252F6BB90197F0
:1006A0005BB9362F2BB94D9147FD352F6BB901F64C
:1006B0004F833B832C839A83898378940E94000123
:1006C000D8011F966D937D938D939C935297299695
:1006D0000FB6F894DEBF0FBECDBFDF91CF911F9153
:1006E0000F91FF90EF90DF90CF900895A532B10564
:1006F00009F059C095B1F8018589982B988795B173
:1007000080958923898789858B838F8187FF02C0A4
:1007100088858B83588569854F813B812C818981B0
:100720009A81D70155B9262F35B900C046FD252F2E
:1007300065B900C055B9362F25B900C045FD352F24
:1007400065B900C055B9262F35B900C044FD252F25
:1007500065B900C055B9362F25B900C043FD352F06
:1007600065B900C055B9262F35B900C042FD252F07
:1007700065B900C055B9362F25B900C041FD352FE8
:1007800065B900C055B9262F35B900C040FD252FE9
:1007900065B9019755B9362F25B94D9147FD352FCC
:1007A00065B901F685CF989709F087CF98B1F80120
:1007B0008589982B988798B1809589238987898521
:1007C0008B838F8187FF02C088858B8358856985DD
:1007D0004F813B812C8189819A81D70158B9262F7D
:1007E00038B900C046FD252F68B900C058B9362F6A
:1007F00028B900C045FD352F68B900C058B9262F6B
:1008000038B900C044FD252F68B900C058B9362F4B
:1008100028B900C043FD352F68B900C058B9262F4C
:1008200038B900C042FD252F68B900C058B9362F2D
:1008300028B900C041FD352F68B900C058B9262F2E
:1008400038B900C040FD252F68B9019758B9362F37
:1008500028B94D9147FD352F68B901F629CF9C91F4
:10086000F8018589982B98879C91809589238987A1
:1008700089858D8388E08E83588569854F813E8187
:100880002D8189819A81F7015C9347FD252F2C9357
:10089000262F3A9531F0441F6C9300C000C000C071
:1008A000F3CF6C93000038E04191019769F7F801AC
:1008B000B48BA38B4F833E832D83FDCECF93DF93E9
:1008C000FC0101900020E9F73197AF01481B590B5B
:1008D000BC018BE991E00E945A01EC0142E050E03A
:1008E0006CE671E08BE991E00E945A018C0F9D1F2C
:1008F000DF91CF9108951F920F920FB60F9211249E
:100900002F933F938F939F93AF93BF9380919301C6
:1009100090919401A0919501B0919601309192012E
:1009200026E0230F2D3758F50296A11DB11D209307
:1009300092018093930190939401A0939501B093B9
:1009400096018091970190919801A0919901B091A1
:100950009A010196A11DB11D809397019093980172
:10096000A0939901B0939A01BF91AF919F918F91FC
:100970003F912F910F900FBE0F901F90189529E86F
:10098000230F0396A11DB11DD2CF1F920F920FB658
:100990000F9211242F933F934F935F936F937F9305
:1009A0008F939F93AF93BF93EF93FF938BE991E066
:1009B0000E94D801FF91EF91BF91AF919F918F91CC
:1009C0007F916F915F914F913F912F910F900FBE4B
:1009D0000F901F9018951F920F920FB60F9211242F
:1009E0002F938F939F93EF93FF93E091AB01F0913F
:1009F000AC018081E091B101F091B20182FD1BC098
:100A000090818091B4018F5F8F732091B50182171F
:100A100041F0E091B401F0E0E556FE4F958F8093F0
:100A2000B401FF91EF919F918F912F910F900FBE85
:100A30000F901F9018958081F4CF789484B58260D0
:100A400084BD84B5816084BD85B5826085BD85B572
:100A5000816085BD80916E00816080936E001092F0
:100A6000810080918100826080938100809181006B
:100A700081608093810080918000816080938000FC
:100A80008091B10084608093B1008091B00081605A
:100A90008093B00080917A00846080937A00809186
:100AA0007A00826080937A0080917A008E7F8093B2
:100AB0007A0080917A00806880937A001092C10059
:100AC000E091AB01F091AC0182E08083E091A7015D
:100AD000F091A8011082E091A901F091AA0187E6A6
:100AE00080831092B301E091AF01F091B00186E0F4
:100AF0008083E091AD01F091AE01808180618083BF
:100B0000E091AD01F091AE01808188608083E09139
:100B1000AD01F091AE01808180688083E091AD01EC
:100B2000F091AE0180818F7D80838FE691E00E94FD
:100B30005E045CE6652E51E0752E6AE7C62E61E024
:100B4000D62E70E6E72E71E0F72E55245394E2E09E
:100B50004E2EF8E1AF2EB12CA8E13A2EB8E08B2E44
:100B6000912C86E190E00E94C006EC01F7012190F3
:100B70007F01022D10E0198218861F86188A198AB3
:100B80001A8A5E865B861C864D865882BD82AC8240
:100B900088E190E00E94C0069A878987009709F44F
:100BA000AEC0FC01232D11922A95E9F79B828A821F
:100BB0001F830E838981882339F061E0822D0E9492
:100BC000CF00822D0E948700F801E458FF4FE49186
:100BD000F0E0EE0FFF1FEE58FF4F859194919C8B34
:100BE0008B8BF801E057FF4FE491ED8BF601C19339
:100BF000D1936F018E819F8197FD86C061E00E9435
:100C0000CF008E810E948700598289859A85892B21
:100C100019F0CE010E94B0026E147F0409F0A1CF3A
:100C200030E0432E30E0532E88E1E82E81E0F82EAC
:100C300090E6892E91E0992E2AE7C22E21E0D22E4D
:100C4000F601C191D1916F014C815D8170E060E04E
:100C500089859A850E94E5078A819B81892B41F0CD
:100C60000FEF2FEF4FEF70E060E0CE010E946702C0
:100C7000F401A1904F01B12C712C612C9501062C2F
:100C800002C0359527950A94E2F7FFEF6F1A7F0AA5
:100C90008A819B8120FF3AC06816790640F4F701EB
:100CA000048122814081B301CE010E946702F7E0F6
:100CB0006F16710419F789859A85892B19F0CE0171
:100CC0000E94B0020E94250126E0E20EF11C82E99A
:100CD000C81681E0D80609F0B3CF85E791E00E94FD
:100CE0005E040E9425014114510409F49DCF0E9425
:100CF000C401882309F498CF0E94000095CF1D827B
:100D00001C821B821A8254CF19827FCF6816790603
:100D100070F600E020E040E0C6CFEBE9F1E013829E
:100D2000128288EE93E0A0E0B0E084839583A683EE
:100D3000B7838AE091E09183808385EC90E095878A
:100D4000848784EC90E09787868780EC90E0918B95
:100D5000808B81EC90E0938B828B82EC90E0958B82
:100D6000848B86EC90E0978B868B118E128E138E7F
:100D7000148E0895EE0FFF1F0590F491E02D099455
:100D80000F931F93CF93DF938230910510F482E08D
:100D900090E0E0913A02F0913B0230E020E0B0E0D8
:100DA000A0E0309799F42115310509F44AC0281BB9
:100DB000390B24303105D8F58A819B816115710585
:100DC00089F1FB0193838283FE0111C0408151812F
:100DD0000281138148175907E0F04817590799F421
:100DE000109761F012960C93129713961C933296FB
:100DF000CF01DF91CF911F910F91089500933A0297
:100E000010933B02F4CF2115310551F042175307DF
:100E100038F0A901DB019A01BD01DF01F801C1CF62
:100E2000EF01F9CF90933B0280933A02CDCFFE01C0
:100E3000E20FF31F81939193225031093983288364
:100E4000D7CF2091380230913902232B41F42091E1
:100E5000020130910301309339022093380220912E
:100E60000001309101012115310541F42DB73EB744
:100E70004091040150910501241B350BE09138028B
:100E8000F0913902E217F307A0F42E1B3F0B28174D
:100E9000390778F0AC014E5F5F4F2417350748F0F3
:100EA0004E0F5F1F50933902409338028193919304
:100EB0009FCFF0E0E0E09CCFCF93DF930097E9F085
:100EC000FC01329713821282A0913A02B0913B0248
:100ED000ED0130E020E01097A1F420813181820FF4
:100EE000931F20913802309139022817390709F0F1
:100EF00061C0F0933902E0933802DF91CF910895F9
:100F0000EA01CE17DF07E8F54A815B819E014115B2
:100F10005105B1F7E901FB83EA8349915991C40F67
:100F2000D51FEC17FD0761F4808191810296840F33
:100F3000951FE90199838883828193819B838A83AA
:100F4000F0E0E0E012968D919C9113970097B9F52F
:100F50002D913C911197CD010296820F931F209104
:100F60003802309139022817390739F6309751F590
:100F700010923B0210923A02B0933902A0933802C9
:100F8000BCCFD383C28340815181840F951FC81782
:100F9000D90761F44E5F5F4F88819981480F591FCF
:100FA000518340838A819B819383828321153105FC
:100FB00009F0B0CFF0933B02E0933A029ECFFD01DF
:100FC000DC01C0CF13821282D7CFDC0101C06D9348
:0C0FD00041505040E0F70895F894FFCF26
:100FDC0000003C02800000000000FA015A01870169
:100FEC004702B8019601AA01FF00000000000000B2
:100FFC00FF00000000000000FF00FF00FF000000E9
:10100C000000FF00FF00FF000000FF00FF00A50034
:10101C000000800000008000000080008000C00004
:10102C00C000C000800080000000FF006900B40018
:10103C0002030405060B0C0D0E131A190D0A00738E
:0A104C006574757000446F6E650056
:00000001FF
